:03000000020100FA
:0100030032CA
:03000B000209489F
:0100130032BA
:01001B0032B2
:0100230032AA
:10010000758140C2B0C2B1C2B2C2B3C2B4740012EF
:1001100008A71208AED295D293758911758CB07567
:100120008A0075369BC224D2D3C2D4780079017A72
:10013000027B0AC2D37430908001F0C222C22375C0
:100140002D4212093BC278C279C220C27AD2A9D20A
:10015000AFD28C3020FDC2203020FDD27A852033F2
:1001600085213412082A1207F9908002E523F4F061
:10017000A21582149295A21782169293B8100302C8
:10018000015D120904120841908004E0B4FF228549
:10019000203385213412082A1207F9908002E523C2
:1001A000F4F0A21582149295A2178216929302017E
:1001B000881208604523B4FF03020188D293D294C9
:1001C000D2951208B5F41208A71208AE12082A88B0
:1001D00037883812090412090E120841C222C223BC
:1001E000908004E0B4FF13908005E0B4FF0F3090DE
:1001F0000F30910F30920F0201E002020902026AF1
:100200000202CE02041D0205281208601207F945F9
:1002100023B4FF030201E01208601208B5F41208CB
:10022000A712082AE8B278B53715307817D2B0D2BD
:10023000B1D2B2C2B3D2B4C223D2228837801A302C
:100240007802B2788837C222C223C2B0C2B1C2B229
:10025000C2B3C2B4E5291208A7E52A1208AE1209F2
:10026000045328F012084B0201E01208891207F922
:100270004523B4FF030201E01208891208B5F41205
:1002800008AE12082AE8B279B53815307917C2B02D
:10029000D2B1D2B2D2B3D2B4C222D2238838801A19
:1002A000307902B2798838C222C223C2B0C2B1C248
:1002B000B2C2B3C2B4E52A1208AEE5291208A712E9
:1002C000090E53280FE8C4F812084B0201E0C2934C
:1002D000C224900064120918C029C02A74001208B0
:1002E000A71208AEA2229225A2239226C222C223DE
:1002F000309036A2269223A2259222D02AE52A12F5
:1003000008AED029E5291208A79000641209183018
:100310002403020359908004E0B4FF51908005E06B
:10032000B4FF0930900902031502062A0203C2D263
:10033000939000641209183090FD9000641209181F
:10034000C2B0C2B1C2B2C2B3C222C223E5291208EE
:10035000A7E52A1208AE0201E0D2939000641209C8
:10036000183090FD9000641209180201E012086034
:100370001207F94523B4FF030203151208B5F4125E
:1003800008A712082A12090420161A5328F0120886
:100390004BC223E52A1208AED222C2B0C2B1D2B2F9
:1003A000C2B30203152017175328F012084BC223BB
:1003B000E52A1208AED222D2B0D2B1C2B2C2B30282
:1003C00003151208891207F94523B4FF0302031528
:1003D0001208B5F41208AE12082A12090E20161DD2
:1003E00053280FE8C4F812084BC222E5291208A7C7
:1003F000D223D2B0D2B1C2B2D2B302031520171A9F
:1004000053280FE8C4F812084BC222E5291208A7A6
:10041000D223C2B0D2B1C2B2D2B3020315C29490F9
:1004200000641209183091FD900064120918908040
:1004300004E0B4FF3A908005E0B4FF063091060274
:10044000042E0204CAD2949000641209183091FD5F
:10045000900064120918C2B0C2B1C2B2C2B3C222C3
:10046000C223E5291208A7E52A1208AE0201E0120C
:1004700008601207F94523B4FF0302042EB4F70302
:1004800002042E1208B5F41208A712082A12090451
:10049000200F1A5328F012084BC223E52A1208AE87
:1004A000D222C2B0D2B1C2B2C2B302042E200E1701
:1004B0005328F012084BC223E52A1208AED222D2EA
:1004C000B0C2B1C2B2C2B302042E1208891207F937
:1004D0004523B4FF0302042EB4F70302042E1208CE
:1004E000B5F41208AE12082A12090E200E1D532868
:1004F0000FE8C4F812084BC222E5291208A7D2233C
:10050000C2B0C2B1C2B2D2B302042E200F17E8C4E7
:10051000F812084BC222E5291208A7D223D2B0C292
:10052000B1C2B2D2B302042EC2959000641209186F
:100530003092FD900064120918908004E0B4FF3AF4
:10054000908005E0B4FF063092060205390205CF1F
:10055000D2959000641209183092FD90006412093F
:1005600018C2B0C2B1C2B2C2B3C222C223E52912BC
:1005700008A7E52A1208AE0201E01208601207F986
:100580004523B4FF030205391208B5F41208A71277
:10059000082A12090420151A5328F012084BD222F7
:1005A000C223E52A1208AED2B0C2B1D2B2C2B3029F
:1005B00005392014845328F012084BD222C223E5B7
:1005C0002A1208AEC2B0D2B1D2B2C2B302053912F9
:1005D00008891207F94523B4FF030205391208B54B
:1005E000F41208AE12082A12090E20151D53280F06
:1005F000E8C4F812084BC222E5291208A7D223C288
:10060000B0C2B1D2B2D2B302053920141A53280FA6
:10061000E8C4F812084BC222E5291208A7D223D257
:10062000B0C2B1D2B2D2B3020539908004E0B4FFB7
:1006300010908005E0B4FF0C30910C30920C020257
:10064000F002064D02068802072C02074DD224B4A0
:100650007F0612076E0202F0B4BF061207BD020247
:10066000F0B4DF061207DD0202F0B4EF030202F07D
:10067000B4F7030202F0B4FB030202F0B4FD03027C
:1006800002F0B4FE000202F0D224B47F18E52AD2B0
:10069000E7C2E6C2E51208AEC26EC26F12093B1293
:1006A00008890202F0B4BF18E52AC2E7D2E6C2E523
:1006B0001208AED26EC26F12093B1208890202F014
:1006C000B4DF18E52AC2E7C2E6D2E51208AEC26E70
:1006D000D26F12093B1208890202F0B4EF18E52A22
:1006E000B2E41208AEB26812093B120889900064A5
:1006F0001209180202F0B4F718E52AB2E31208AEA4
:10070000B26912093B1208899000641209180202AA
:10071000F0B4FB061208890202F0B4FD0612088943
:100720000202F0B4FE031208890202F0D224E53678
:10073000B4FF030202F09009F393908002F09080DE
:1007400003F005369000191209180202F0D224E5D0
:1007500036B400030202F09009F393908002F09007
:100760008003F015369000191209180202F0A20752
:10077000925FA205925EA203925DA201925CA20F1B
:10078000925BA20D925AA20B9259A2099258A2060C
:100790009267A2049266A2029265A2009264A20EDF
:1007A0009263A20C9262A20A9261A2089260E52B67
:1007B000F4908002F0E52CF4908003F0227400A203
:1007C0006E92E6A26F92E5206E05206F02D2E7A23C
:1007D00069B392E3A268B392E41208AE2290800754
:1007E000E0F52EF4541F7908780013C0E0E833F8E0
:1007F000D0E0D9F6E81208AE22A2078206921FA224
:10080000058204921EA2038202921DA2018200921E
:100810001CA20F820E921BA20D820C921AA20B82B6
:100820000A9219A209820892182278007908E53301
:1008300033500D08D9FA7908E53433500308D9FA52
:1008400022908000E8C428F528F022908000E52856
:1008500028F528F022908004E0B4FF030208582213
:10086000C0E0908004E0C0E0C082C08390003212FB
:100870000918D083D082D0E0B4FFEAD0E022908083
:1008800005E0B4FF0302088122C0E0908005E0C0CB
:10089000E0C082C083900032120918D083D082D089
:1008A000E0B4FFEAD0E022908002F529F0229080A7
:1008B00003F52AF022C0E0C020C021C022780475D0
:1008C0002500752600F527E527139221F527E52653
:1008D00013302101D313F526D8ED7804E5271392C0
:1008E00021F527E52513302101D313F525D8ED4255
:1008F00020E5264221852134852033D022D021D005
:1009000020D0E022E8134003C29622D29622E813B8
:100910004003C29722D29722E58245836013D3E534
:10092000829400F582E5839400F58312093202096E
:1009300018227EC400000000DEFB22908006E52D18
:10094000F0908007E0F52E22C0D0C0E0C082C083C6
:10095000C220D2D3C2D4D9747901A2B5927D307AA3
:100960001C207B19E5321313131313927C827D40F4
:100970000CA27C727D5006DA33D27B802F7A02C2C1
:100980007BA27DE53013F530E53113F531E5321307
:10099000F5329009DFE893908001F008B8140D85D6
:1009A00030208531218532227800D220DB1E7B0A5F
:1009B00030220BE535F4F5355529908002F03023CF
:1009C0000BE535F4F535552A908003F0758CB0753C
:1009D0008A00C2D3C2D4D083D082D0E0D0D032201B
:1009E00010004F4E4D4C4B4A494847464544434200
:1009F000414030000001010101010101010101013B
:100A000001010101010101010101010101010101D6
:100A100001010101030303030303030303030303AE
:100A20000303030303030303030303030303030396
:100A30000303030307070707070707070707070756
:100A40000707070707070707070707070707070736
:100A5000070707070F0F0F0F0F0F0F0F0F0F0F0FC6
:100A60000F0F0F0F0F0F0F0F0F0F0F0F0F0F0F0F96
:100A70000F0F0F0F1F1F1F1F1F1F1F1F1F1F1F1FC6
:100A80001F1F1F1F1F1F1F1F1F1F1F1F1F1F1F1F76
:100A90001F1F1F1F3F3F3F3F3F3F3F3F3F3F3F3FE6
:100AA0003F3F3F3F3F3F3F3F3F3F3F3F3F3F3F3F56
:100AB0003F3F3F3F7F7F7F7F7F7F7F7F7F7F7F7F46
:100AC0007F7F7F7F7F7F7F7F7F7F7F7F7F7F7F7F36
:100AD0007F7F7F7FFFFFFFFFFFFFFFFFFFFFFFFF26
:100AE000FFFFFFFFFFFFFFFFFFFFFFFFFFFFFFFF16
:040AF000FFFFFFFF06
:00000001FF
